:020000040800F2
:1000000068400020CD010008950200088D0200081C
:100010009102000887020008690300080000000040
:10002000000000000000000000000000F9020008CD
:100030008B02000800000000C1020008FB0200085B
:10004000E7010008E7010008E7010008E7010008F0
:10005000E7010008E7010008E7010008E7010008E0
:10006000E7010008E7010008E7010008E7010008D0
:10007000E7010008E7010008E7010008E7010008C0
:10008000E7010008E7010008E7010008E7010008B0
:10009000E7010008E7010008E7010008E7010008A0
:1000A000E7010008E7010008E7010008E701000890
:1000B000E7010008E7010008E7010008E701000880
:1000C000E7010008E7010008E7010008E701000870
:1000D000E7010008E7010008E7010008E701000860
:1000E000E7010008E7010008E7010008E701000850
:1000F000E7010008E7010008E7010008E701000840
:10010000E7010008E7010008E7010008E70100082F
:10011000E7010008E7010008E7010008E70100081F
:10012000E7010008E7010008E7010008E70100080F
:1001300000F002F800F03AF80AA090E8000C8244BF
:100140008344AAF10107DA4501D100F02FF8AFF29C
:10015000090EBAE80F0013F0010F18BFFB1A43F0A5
:10016000010318471C0400003C040000103A24BF9F
:1001700078C878C1FAD8520724BF30C830C144BF0C
:1001800004680C607047000000230024002500264E
:10019000103A28BF78C1FBD8520728BF30C148BFEA
:1001A0000B6070471FB51FBD10B510BD00F031F8D2
:1001B0001146FFF7F7FF00F045F900F04FF803B4E0
:1001C000FFF7F2FF03BC00F057F800000948804732
:1001D00009480047FEE7FEE7FEE7FEE7FEE7FEE729
:1001E000FEE7FEE7FEE7FEE704480549054A064B41
:1001F0007047000005030008310100086800002076
:100200006840002068200020682000207047704768
:100210007047754600F02CF8AE4605006946534617
:1002200020F00700854618B020B5FFF7DDFFBDE8D8
:1002300020404FF000064FF000074FF000084FF04D
:10024000000B21F00701AC46ACE8C009ACE8C009DE
:10025000ACE8C009ACE8C0098D46704710B504464B
:10026000AFF300802046BDE81040FFF7A8BF0000B4
:10027000004870470800002001491820ABBEFEE787
:1002800026000200704700BFFEE7704700BFFEE790
:1002900000BFFEE77047000010B5002807DA0A0724
:1002A000140E054A00F00F031B1FD45403E00A0785
:1002B000130E024A135410BD18ED00E000E400E0F4
:1002C000704700000348006880F40070014908602E
:1002D000704700000C0C014010B540F2036000F0C4
:1002E000BDF84FF4007302221021024800F054F8C8
:1002F00010BD0000000C0140704710B500F040F840
:1003000010BD000010B51448006840F0010012490B
:10031000086008464068114908400F49486008468F
:1003200000680F4908400C4908600846006820F43E
:1003300080200860084640680A490840064948602D
:100340000846006806490840034908604FF41F004A
:10035000886000F0E9F810BD001002400C00FFE8D2
:10036000FFFFF6FEFFFF00F700BFFEE7034908604E
:1003700000BF024909680029FBD170470000002036
:100380000448006820B103480068401E0149086025
:100390007047000000000020F0B504461646002516
:1003A000002201F00F0501F0100707B135430020CE
:1003B0001EE0012787401F40C7B122684FEA800C2A
:1003C0000F2707FA0CF7BA43870005FA07F73A43F5
:1003D000282904D1012787401F40676105E048298B
:1003E00003D1012787401F4027612260471CB8B214
:1003F0000828DED3082022E0012787401F40E7B10C
:100400006268A0F108074FEA870C0F2707FA0CF77C
:10041000BA43A0F10807BF0005FA07F73A432829B5
:1004200004D1012787401F40676105E0482903D1B7
:10043000012787401F4027616260471CB8B210281F
:10044000DAD3F0BD00F074F8FFF746FF05E0FFF7E0
:1004500039FF4FF47A70FFF789FFF8E7064A02EB9D
:100460009011096800F01F0301229A401143024BCA
:1004700003EB901211607047001002400020002131
:10048000264A126842F00102244B1A6000BF401C49
:10049000224A126802F0020111B9B0F5A06FF6D13C
:1004A0001E4A126802F002020AB900BFFEE71B4AA8
:1004B00052681A4B5A601A4652685A601A46526875
:1004C00042F480625A601A465268154B1A40134B28
:1004D0005A601A465268134B1A43104B5A601A4618
:1004E000126842F080721A6000BF0C4A126802F073
:1004F0000072002AF9D0094A526822F00302074B21
:100500005A601A46526842F002025A6000BF034A1B
:10051000526802F00802002AF9D070470010024029
:10052000FFFFC3F70000280810B5FFF7A7FF10BDB5
:1005300010B5124800684FF47A71B0FBF1F4601EF8
:10054000B0F1807F01D301200FE0601E4FF0E02169
:1005500048610F214FF0FF30FFF79EFE00204FF063
:10056000E021886107200861002008B100BFFEE794
:100570000021481EFFF790FE10BD0000040000207F
:10058000A005000800000020080000006C01000821
:10059000A80500080800002060400000880100084D
:0805A0000000000000F36F06EB
:0400000508000131BD
:00000001FF
